:020000040800F2
:10000000000700206D010008750100087701000855
:10001000790100087B0100087D0100080000000054
:100020000000000000000000000000007F01000848
:10003000810100080000000083010008850100081C
:100040008701000887010008870100088701000870
:100050008701000887010008870100088701000860
:100060008701000887010008870100088701000850
:100070008701000887010008870100088701000840
:100080008701000887010008870100088701000830
:100090008701000887010008870100088701000820
:1000A0008701000887010008870100088701000810
:1000B0008701000887010008870100088701000800
:1000C00087010008870100088701000887010008F0
:1000D00087010008870100088701000887010008E0
:1000E00087010008870100088701000800F002F876
:1000F00000F02CF80AA090E8000C82448344AAF196
:100100000107DA4501D100F021F8AFF2090EBAE893
:100110000F0013F0010F18BFFB1A43F0010318473B
:10012000CC080000DC080000002300240025002685
:10013000103A28BF78C1FBD8520728BF30C148BF4A
:100140000B6070471FB51FBD10B510BD00F050F813
:100150001146FFF7F7FF00F0C9FB00F06EF803B49B
:10016000FFF7F2FF03BC00F075F800000948804774
:1001700009480047FEE7FEE7FEE7FEE7FEE7FEE789
:10018000FEE7FEE7FEE7FEE704480549054A064BA1
:100190007047000021060008ED0000080001002063
:1001A0000007002000030020000300207047704774
:1001B0007047A0E8004FF0C040F804DB01B5AFF392
:1001C0000080BDE8024001C10020704700F12C080A
:1001D0000C4658F8040DAFF3008058F8040D85461E
:1001E000200008BF012038E9F00018E9004F7047EF
:1001F000754600F02BF8AE4605006946534620F0E0
:100200000700854618B020B5FFF7BEFFBDE82040C7
:100210004FF000064FF000074FF000084FF0000BC2
:10022000AC46ACE8C009ACE8C009ACE8C009ACE831
:10023000C00921F007018D46704710B50446AFF3A1
:1002400000802046BDE81040FFF789BF0048704796
:100250000000002001491820ABBEFEE72600020086
:100260007047000088B00790069100200590049028
:1002700003900290019000900698C07800F00F0063
:1002800005900698C078C006002806D5FFE70698B6
:100290008178059808430590FFE7069800780028C4
:1002A0004BD0FFE707980068019000200390FFE71C
:1002B000039807283DD8FFE7039901208840029062
:1002C0000698008802990840049004980299884290
:1002D0002AD1FFE703988000029002990F208840FE
:1002E000009000990198884301900598029900FABE
:1002F00001F10198084301900698C078282806D19A
:10030000FFE7039901208840079948610BE00698B0
:10031000C078482806D1FFE7039901208840079953
:100320000861FFE7FFE7FFE7FFE70398013003906D
:10033000BEE7019807990860FFE706980088B0F5C6
:10034000807F50DBFFE70798406801900020039012
:10035000FFE70398072842D8FFE7039800F1080158
:100360000120884002900698008802990840049075
:100370000498029988422DD1FFE7039880000290EB
:1003800002990F20884000900099019888430190BD
:100390000598029900FA01F1019808430190069826
:1003A000C078282808D1FFE7039800F10801012050
:1003B000884007994861FFE70698C078482808D127
:1003C000FFE7039800F108010120884007990861C0
:1003D000FFE7FFE7FFE7039801300390B9E70198D3
:1003E00007994860FFE708B07047000082B00190AD
:1003F000ADF8021000208DF8010001988068BDF86A
:100400000210084204D0FFE701208DF8010003E04C
:1004100000208DF80100FFE79DF8010002B0704751
:1004200081B000900098C06880B201B070470000B1
:1004300082B00190ADF80210BDF802000199486148
:1004400002B0704782B00190ADF80210BDF8020012
:100450000199086102B0704782B00190ADF80210B6
:10046000BDF802000199C86002B0704780B582B043
:100470001420012100F022F84FF46040ADF8040090
:1004800048208DF8070041F20000C4F2010001A9E4
:100490000091FFF7E7FE00991F20ADF8040010203F
:1004A0008DF8070003208DF8060040F60000C4F226
:1004B0000100FFF7D7FE02B080BD000082B00190BE
:1004C0008DF803109DF8030048B1FFE7019A41F24F
:1004D0001801C4F2020108681043086008E0019A9C
:1004E00041F21801C4F20201086890430860FFE776
:1004F00002B0704780B500F001F880BD84B00020E4
:100500000390029041F20001C4F20201086840F435
:1005100080300860FFE741F20000C4F2020000688A
:1005200000F400300290039801300390FFE7029935
:100530000020019039B9FFE70398B0F5A06018BF1B
:1005400001200190FFE70198C0070028E3D1FFE7F1
:1005500041F20000C4F2020000688003002803D5C5
:10056000FFE70120029002E000200290FFE70298DE
:10057000012851D1FFE742F20001C4F202010868EC
:1005800040F010000860086820F007000860086864
:1005900040F00200086041F20401C4F2020100913F
:1005A0000868086008680860086840F480600860AF
:1005B000086820F47C100860086840F4E8100860BF
:1005C00041F20001C4F20201086840F08070086046
:1005D000FFE741F20000C4F2020000688001002839
:1005E00001D4FFE7F5E741F20401C4F20201086813
:1005F00020F003000860086840F002000860FFE790
:1006000041F20400C4F20200006800F00C00082867
:1006100001D0FFE7F4E700E0FFE704B07047000017
:1006200080B541F20002C4F20202106840F00100FD
:10063000106041F20401C4F2020108680023CFF601
:10064000FF031840086010684FF6FF73CFF6F6639B
:1006500018401060106820F480201060086820F4B2
:10066000FE00086041F20801C4F202014FF41F00CD
:100670000860FFF73FFF4EF60851CEF200014FF041
:100680000060086080BD000080B58AB0099000203D
:100690000890FFE708980999884240D2FFE740F6A2
:1006A0000000C4F20100059001210191FFF7CAFE8C
:1006B000059802210291FFF7C5FE059804210391D8
:1006C000FFF7C0FE059808210491FFF7BBFE0598CF
:1006D00010210691FFF7B6FE48F2A060C0F20100BB
:1006E000079000F08FF801990598FFF7A1FE029995
:1006F0000598FFF79DFE03990598FFF799FE049969
:100700000598FFF795FE05980699FFF791FE079863
:1007100000F078F8FFE7089801300890BAE740F257
:100720006000C2F200000121FFF750FD80B58AB0E1
:10073000099000200890FFE70898099988425AD24A
:10074000FFE740F60000C4F201000590012100918E
:10075000FFF778FE48F2A060C0F20100049000F0BC
:1007600051F800990598FFF763FE42F21070079068
:1007700000F048F8059802210191FFF763FE049804
:1007800000F040F801990598FFF752FE079800F035
:1007900039F8059804210291FFF754FE049800F0FF
:1007A00031F802990598FFF743FE049800F02AF803
:1007B000059808210391FFF745FE049800F022F800
:1007C00003990598FFF734FE079800F01BF8059889
:1007D00010210691FFF736FE049800F013F80598F3
:1007E0000699FFF725FE079800F00CF8FFE7089838
:1007F00001300890A0E740F26000C2F20000012141
:10080000FFF7E4FC80B582B0019000200090FFE784
:1008100000980199884252D2FFE741F20000C4F2E9
:1008200001004FF40051FFF7E1FD78B9FFE7FFE762
:1008300041F20000C4F201004FF40051FFF7D6FD71
:1008400008B9FFE7F4E700F0B7F8FFE741F200006E
:10085000C4F201004FF48041FFF7C8FD80B9FFE703
:10086000FFE741F20000C4F201004FF48041FFF7BE
:10087000BDFD08B9FFE7F4E70A20FFF705FFFFE732
:1008800041F20000C4F201004FF40041FFF7AEFD59
:1008900080B9FFE7FFE741F20000C4F201004FF426
:1008A0000041FFF7A3FD08B9FFE7F4E70720FFF7D2
:1008B0003DFFFFE7FFE7009801300090A8E70A201E
:1008C00000F002F802B080BD82B0019000200090DC
:1008D000FFE700980199884205D2FFE7FFE70098FB
:1008E00001300090F5E702B07047000080B582B09B
:1008F00000200190FFF7BAFD40F60000C4F20100AD
:100900001F21FFF79FFDFFE740F26000C2F20000E9
:10091000FFF74FFC009041F20000C4F201004FF4D9
:100920000051FFF763FD78B9FFE7FFE741F20000F0
:10093000C4F201004FF40051FFF758FD08B9FFE77A
:10094000F4E700F039F835E041F20000C4F20100AC
:100950004FF48041FFF74AFD80B9FFE7FFE741F21E
:100960000000C4F201004FF48041FFF73FFD08B9D9
:10097000FFE7F4E70A20FFF787FE1AE041F20000E4
:10098000C4F201004FF40041FFF730FD80B9FFE7EA
:10099000FFE741F20000C4F201004FF40041FFF70D
:1009A00025FD08B9FFE7F4E70720FFF7BFFEFFE7E3
:1009B000FFE7FFE7A8E7000080B582B040F600003F
:1009C000C4F201000090FFF72BFD0146009881F072
:1009D0001F01ADF80610BDF80610FFF73DFD40F20F
:1009E0006000C2F200000121FFF7F0FBFC090008E3
:0C09F000000000200007000028010008A3
:04000005080000ED02
:00000001FF
